:020000040800F2
:10000000580C0020BD020008413F0008FD310008E7
:10001000293D00087B110008214F00080000000066
:10002000000000000000000000000000374700084A
:10003000DB110008000000003547000839470008C0
:10004000D7020008D7020008D7020008D70200082C
:10005000D7020008D7020008D7020008D70200081C
:10006000D7020008D7020008D7020008D70200080C
:10007000D7020008D7020008D7020008D7020008FC
:10008000D7020008D7020008D7020008D7020008EC
:10009000D7020008D7020008D7020008D7020008DC
:1000A000D7020008D7020008D7020008D7020008CC
:1000B000D7020008D7020008D7020008D7020008BC
:1000C000D7020008D7020008D7020008D7020008AC
:1000D000D7020008D7020008D7020008814E0008A6
:1000E000D7020008D7020008D7020008D70200088C
:1000F000D7020008D7020008D7020008D70200087C
:10010000D7020008D7020008D7020008D70200086B
:10011000D7020008D7020008D7020008D70200085B
:10012000D70200087D110008D7020008D702000896
:10013000D70200080000000000000000D7020008FD
:10014000D7020008D7020008D7020008D70200082B
:10015000D7020008D7020008D7020008894E00081D
:10016000D7020008D7020008D7020008D70200080B
:10017000D7020008D7020008D702000800000000DC
:1001800000000000D702000800000000000000008E
:10019000D70200080000000000000000D70200089D
:1001A000000000000000000000000000D70200086E
:1001B000D7020008D7020008D7020008D7020008BB
:1001C000D702000800F002F800F068F814A696E8DC
:1001D000000CB244B344DA4501D100F05FF8BAE84C
:1001E0000F000FA696E83000A5EB040504EB060708
:1001F000AAEB0704A7F101074FEA15154FEA3414DB
:10020000A4F10104AC4201D300F048F813F0010F4F
:1002100018BFFB1A43F0010300F001F8DBE71847B1
:10022000FC6D00001C6E0000103A24BF78C878C135
:10023000FAD8520724BF30C830C144BF04680C60EC
:1002400070470000704700000023002400250026AE
:10025000103A28BF78C1FBD8520728BF30C148BF29
:100260000B607047662906F0A485642900F024819C
:10027000782900F05D81732900F093850020704794
:100280001FB506F084FD00F0FFFD040000200021F2
:1002900006F062F8E0601FBD10B510BD00F0F8FE7A
:1002A0001146FFF7EDFF04F03FFE00F016FF03B428
:1002B000FFF7F2FF03BC00F059FF00000948804738
:1002C00009480047FEE7FEE7FEE7FEE7FEE7FEE738
:1002D000FEE7FEE7FEE7FEE704480549054A064B50
:1002E00070470000D9470008C501000858060020E3
:1002F000580C0020580800205808002053EA020C2F
:1003000000F069802DE9F04B4FF00006002B1FBF75
:10031000B3FA83F503FA05F424FA05F65E4012BF3A
:100320001643B2FA82F502FA05F4C5F120051EBFA4
:1003300022FA05FC44EA0C04203556EA044C4FEA44
:10034000144418BF641C4FF000084FF0000990429D
:1003500071EB030C39D3002919BFB1FA81F701FA07
:1003600007F6B0FA80F700FA07F6C7F120071EBFBC
:1003700020FA07FC46EA0C062037B6FBF4FCA7EB94
:100380000507103F07F01F0BCBF120062CFA06F6ED
:100390000CFA0BFB44BFB3460026202FA4BF5E46D9
:1003A0004FF0000B5BEA060C08BF4FF0010B19EB96
:1003B0000B0948EB0608ABFB027C06FB02CC0BFBEF
:1003C00003CCC01B71EB0C01C1E70B460246414652
:1003D0004846BDE8F08B13B5084318BF4FF0FF3017
:1003E0000146AFF30080BDE81C4070470FB41CB558
:1003F000084B06AA7B4469460090059800F0A7FCCC
:1004000004460020694600F0B5FC20461CBC5DF89F
:1004100014FB00007D09000070B504468569006882
:10042000C10601D5302600E02026C00707D070BDE8
:10043000D4E9012130469047206A401C20626D1E9D
:10044000F6D570BD70B5044685690078C00707D140
:1004500070BDD4E9012120209047206A401C206211
:100460006D1EF6D570BD70B50C460546012A05D047
:100470002878800600D5EA69002302E0012305E020
:100480005B1C934202D2E05C0028F9D1A869E6180F
:10049000C01AA861286A184428622846FFF7BCFFE2
:1004A00004E0D5E9012114F8010B9047B442F8D3D8
:1004B0002846FFF7C7FF70BD2DE9F041064600242E
:1004C00010687529314616A510D0AFF300800028BA
:1004D00002DA404213A507E031688A0701D512A568
:1004E00002E0490704D511A5012401E0AFF3008023
:1004F00000210A2206F1240709E0B0FBF2FCB0FB60
:10050000F2F302FB1C00303078541846491C0028D6
:10051000F3D123462A463046BDE8F04100F0ABB99E
:10052000000000002D0000002B0000002000000053
:1005300070B504460D4621461068AFF3008021884F
:10054000090502D50F4A7A4402E00E4A7A440E3277
:10055000002104F1240305E000F00F060009965D78
:100560005E54491C0028F7D120780023000704D5E9
:10057000702D02D009B1022311322046BDE870402F
:1005800000F079B96C6800002DE9F05F89460446F7
:100590004FF0000ADFF824B1FB44C0F820A0204649
:1005A000E168884700287DD0252806D0D4E90121BC
:1005B0009047206A401C2062F1E700255F462046F4
:1005C000E16888472028064607DB312E05D2B81996
:1005D00010F8200C08B10543F1E7A80701D525F074
:1005E0000405C4F81CA00027C4F818A02A2E09D0BE
:1005F000304605F09DFE38B304EB8708303EC8F85E
:10060000186019E059F8041B204604EB8702916139
:10061000E1688847012F064618D1E069002820DAF2
:1006200025F020051DE0D8F8180000EB800006EB4F
:1006300040003038C8F818002046E1688847064670
:1006400005F076FE0028EED1012F0AD02E2E08D11B
:100650002046E16888477F1C0646022F45F02005AA
:10066000C4DBA069002803DA404245F00105A0611F
:10067000E80701D025F01005A6B1A6F14100192820
:1006800002D8203645F400654A46314620462560AA
:100690004D46FFF7E7FD60B1012807D0ED1D25F0BD
:1006A000070000E007E000F1080978E705F1040918
:1006B00075E730467AE7206ABDE8F09F426800009F
:1006C00010B5431C02E010F8011B71B18107FAD18B
:1006D0004FF0013202C88C1A8C4314EAC211F9D0CF
:1006E000C01A0A0603D0C01E10BDC01A10BD0A04ED
:1006F00001D0801E10BD0902FCD0401E10BD032A8F
:1007000040F2308010F0030C00F0158011F8013B2E
:10071000BCF1020F624498BF11F801CB00F8013B15
:1007200038BF11F8013BA2F1040298BF00F801CBD9
:1007300038BF00F8013B11F0030300F03683083A9C
:10074000C0F0088051F8043B083A51F804CBA0E807
:100750000810F5E7121D5CBF51F8043B40F8043B5C
:10076000AFF30080D20724BF11F8013B11F801CB91
:1007700048BF11F8012B24BF00F8013B00F801CB62
:1007800048BF00F8012B7047431A28BF9A427FF6F2
:10079000B6AF10441144032A40F2268010F0030F34
:1007A0001EBF11F8013D521E00F8013D10F0030F6D
:1007B0007FF4F6AF11F0030300F03C83083AC0F079
:1007C0000B8051F8043D083A51F804CD40F8043D3F
:1007D00040F804CDFFF7F3BF121D5CBF51F8043D94
:1007E00040F8043DAFF30080D20724BF11F8013D6B
:1007F00011F801CD48BF11F8012C24BF00F8013DCC
:1008000000F801CD48BF00F8012C70474FF00002FE
:1008100000B5134694469646203922BFA0E80C50F6
:10082000A0E80C50B1F12001BFF4F7AF090728BFD1
:10083000A0E80C5048BF0CC05DF804EB890028BF4D
:1008400040F8042B08BF704748BF20F8022B11F076
:10085000804F18BF00F8012B7047704770477047F2
:1008600010B500F015FB006810BD10B5044600F08F
:100870000FFB046010BD2DE9F0470D4699469246E6
:10088000044600F124080168880604D5E06921F0D7
:100890001001216000E00120A84201DD471B00E0BB
:1008A0000027A1697A1902EB0900081AA0612078D3
:1008B000C00602D42046FFF7AFFD002608E0D4E9C9
:1008C00001211AF806009047206A401C761C20621D
:1008D0004E45F4DB2078C0060AD52046FFF79CFD84
:1008E00006E0D4E9012130209047206A401C2062B4
:1008F000381EA7F10107F4DC07E0D4E9012118F85C
:1009000005009047206A401C2062281EA5F10105C1
:10091000F3DC2046FFF796FD2078000602D5022082
:10092000BDE8F0870120FBE72DE9FF4F0C461E468E
:100930004FF0FF378BB0D2E90001DDF860800A90FC
:100940008A46C1F30A5505B93D46002108464FF0D5
:100950000000BAF1000F00F4400005DA00EB80005F
:100960004FF4400101EA50004FEA9059B9F1010FEC
:1009700000DDB9460A9850EA4A000ED044F61050FD
:10098000A5F2FF3545432F14B8F1000F1ED0754274
:10099000291E1EDDC9F100021CE0B8F1010F4FF065
:1009A000000001D0302103E0F24305E02154401C57
:1009B000B042FBDB30460022002121540B99C1F8E4
:1009C0000880C1E900200FB0BDE8F08FBD1B6D1C91
:1009D000DEE74A4600DA694206A800F0E3FA06AB11
:1009E00093E8070003AB83E8070050460A9904F038
:1009F000E1FB8DE80700A0F500501F380090039838
:100A0000002D0ADD42F21F014A460844002303A9D3
:100A10000390684604F04AFE09E0A0F500504A46FB
:100A20001F38002303A90390684604F054FE8DE8A4
:100A300007000004000C03D04FF0FF30410800E035
:100A40001046B8F1000F03D00022009215461EE0B8
:100A5000751E05D400F020FA303262556D1EF9D5AE
:100A6000B3460122084302D000227F1C04E0207814
:100A7000302801D100227F1E002A099784D01DE072
:100A8000112D07DA00F008FA303262556D1C50EA79
:100A90000102F5D1084302D00098C8B10EE0002150
:100AA000681E05E0235C625C63542254401E491CAE
:100AB0008142F7DBAB46A81B401E0990002004F8DA
:100AC0000B000B98099AC0F80880C0E9002B7AE760
:100AD00011264FF0000857E72DE9F04F88460446ED
:100AE000D21D22F0070191B0D1E90001CDE90A0140
:100AF00004F028FF02460B98C00F01D02D2007E01C
:100B00002068810701D52B2002E0202101EAC000E6
:100B1000032A099001D0072A05DB034641462046F7
:100B200000F000FA0BE12078800601D5E06900E0D2
:100B30000620B8F1650F814606D0B8F1660F18D0CF
:100B4000B8F1670F70D131E00020B9F1110F0090BA
:100B500001DB112301E009F101030AAA01A90CA894
:100B6000FFF7E2FEDDE90C70002609F1010583467E
:100B700047E001204B4600904FF000470AAA01A928
:100B80000CA8FFF7D1FEDDE90DB00C995D460026FB
:100B900010B909F101000D18B9EB050003D4C0F13B
:100BA000FF3609F10105A5EB09002BE0B9F1010FB2
:100BB00001DA4FF001090020B9F1110F0090484609
:100BC00001DD112300E003460AAA01A90CA8FFF7E2
:100BD000ABFEDDE90C704D46002683462078000709
:100BE0000AD4AB4500DA5D4601A8012D04DD4119A8
:100BF00011F8011C302907D04F4502DA17F1040F14
:100C000004DA012082460FE06D1EEEE7002F02DCC1
:100C1000ED1B3E4403E0781CA84200DD7D1CB81BA0
:100C200000F1010A4FF000472078000703D4AA45DD
:100C300001DB4FF0FF3A0021B7F1004F0DF14308FF
:100C40008DF8431024D002202B23002F01DA7F429D
:100C50002D230A21021EA0F1010000DC5FB197FBE9
:100C6000F1FC97FBF1F201FB1C7C17460CF1300CF8
:100C700008F801CDEEE7A8F101000370218809050D
:100C800001D5452100E06521A0F1010800F8011C13
:100C900009980FA9A1EB0807FF1D00B10120411918
:100CA00001EBEA70A1693844081A401EA06120785F
:100CB000C00602D42046FFF7AFFB099828B1D4E95B
:100CC00001219047206A401C20622078C00622D56E
:100CD0002046FFF7A1FB1EE0002E04DBB34502DD3A
:100CE00001A8805D00E03020D4E901219047206A0E
:100CF000401C2062761CAAF101005FEA000A0AD1BA
:100D000000F0C2F8C0680168405CD4E90121904756
:100D1000206A401C2062281EA5F10105DCDC07E0EA
:100D2000D4E9012118F8010B9047206A401C206289
:100D3000381EA7F10107F3DC2046FFF783FB0320F1
:100D400011B041E601694A1C02610878704700B59C
:100D50008FB0CDE901310021059105497944CDE9F4
:100D6000031011466846FFF70FFC0FB000BD0000EE
:100D7000E5FFFFFF0A6802F8010B0A60704710B533
:100D8000436913B1AFF3008001E0FFF76CFB012072
:100D900010BD127800F124010A7000224A7001226D
:100DA000EDE711684FF0FF32E9E710B5203AC0F0E7
:100DB0000B80B1E81850A0E81850B1E81850A0E82E
:100DC0001850203ABFF4F5AF5FEA027C24BFB1E8C7
:100DD0001850A0E8185044BF18C918C0BDE810400A
:100DE0005FEA827C24BF51F8043B40F8043B08BF13
:100DF0007047D20728BF31F8023B48BF11F8012BDA
:100E000028BF20F8023B48BF00F8012B7047431A67
:100E100028BF9A427FF6C9AF1044114410F0030F67
:100E20001EBF11F8013D521E00F8013D10F0030FE6
:100E30007FF4F6AF103AC0F00A8010B531E91850CF
:100E400020E91850103ABFF4F9AFBDE8104053073D
:100E500024BF31E9081020E9081044BF51F8043DCF
:100E600040F8043D12F0030F08BF7047D20728BFB7
:100E700031F8023D48BF11F8012C28BF20F8023D8F
:100E800048BF00F8012C704700487047B8000020A8
:100E9000004870479800002030B5B0F10A0271F1A7
:100EA00000034FEA900E4EEA817EB0EB0E0061EB3C
:100EB00091014FEA101E4EEA017E10EB0E0041EB4D
:100EC00011114FEA102E4EEA016E10EB0E0041EBAD
:100ED00011214FEA104E4EEA014E10EB0E0041EB8D
:100EE0001141401841F100014FEAD00040EA417041
:100EF0004FEAD1014FEA810444EA907410EB800577
:100F000044EB01046D1944EB0404521BA3414FF060
:100F1000000348BF0A3200D530BD401C41F100013A
:100F200030BD00002DE9F0411F460446032601684C
:100F3000072A01F4006004DB08B116A505E016A538
:100F400003E008B115A500E015A521F01000206010
:100F5000A069C01EA0610FB1401EA0612046FFF72E
:100F60005BFA4FB1D4E9012138469047206A401C12
:100F70002062C01C206206E0206AFAE7D4E9012161
:100F800015F8010B9047761EF8D22046FFF75AFA63
:100F9000BDE8F0814E414E006E616E00494E460044
:100FA000696E66002DE9F047814616468AB03548DD
:100FB00078440DC88DE80D0032487844801C03AC9D
:100FC0000DC884E80D0041F69B300844372190FBA2
:100FD000F1F290FBF1F5A5F1800501FB12041B3C39
:100FE00002D56442012000E00020DFF898A080468E
:100FF0000027FA44AAF1BE0A0EE0E0070AD0324602
:10100000684607EB470101230AEB810104F063FB0B
:101010008DE8070064107F1C002CEED1194F7F442F
:10102000AE3F19E0E80715D007EB04100DF1180AE0
:1010300090E80E008AE80E00C068F04201D19819CD
:1010400008903246012306A903A804F044FB03AB31
:1010500083E807006D10641C002DE3D14FF00103FD
:1010600032466946B8F1000F03A802D004F01EFB17
:1010700001E004F030FBC9E90001C9F808200AB01A
:10108000BDE8F087E05F000000487047980000204E
:101090007546FFF7F9FFAE4605006946534620F056
:1010A0000700854618B020B5FFF716F9BDE82040C7
:1010B0004FF000064FF000074FF000084FF0000B14
:1010C000AC46ACE8C009ACE8C009ACE8C009ACE883
:1010D000C00921F007018D46704710B50446AFF3F3
:1010E00000802046BDE81040FFF7E1B80000000096
:1010F00030B44FF0013C50F8042B51F8043BCCFACB
:1011000052F4D51A20D1FCB950F8042B51F8043B05
:10111000CCFA52F4D51A17D1B4B950F8042B51F8BF
:10112000043BCCFA52F4D51A0ED16CB950F8042B0A
:1011300051F8043BCCFA52F4D51A05D1002CDAD080
:1011400030BC4FF00000704729BAB1FA81F111F0BC
:101150001801D1F120008440F2D1CA40CB4012F0F6
:10116000FF0213F0FF0330BCD01A7047014918206A
:10117000ABBEFEE7260002007047FEE7014800F024
:1011800093BA00BFEC020020026840F2FF3122EA6D
:10119000010102F0F802103A5F2A88BF043181652C
:1011A0001823B2FBF3F202A39A5CC26508467047AB
:1011B0000006101600061016B0B504688068256891
:1011C0004028084625F480252560636008BF104646
:1011D000A06008BF0A46E260B0BD704770470021BA
:1011E000C0E90011C0E9021100F07AB810B52DED88
:1011F000068B044600F036F800EE100A9FED168AC2
:101200009FED169A02F0B1FE20EE09AA00F03EF81A
:1012100000EE100A84ED00AA02F0A7FE20EE090AF3
:1012200084ED010A00F026F800EE100A9FED0C8A0A
:1012300002F09BFE20EE09AA00F030F800EE100A42
:1012400084ED02AA02F091FE20EE090A84ED030A61
:10125000BDEC068B10BD00BF99997941D95CA341C3
:101260000000C3442549264809680088496A081ACD
:1012700000B2704710B52148214C0068406A81B225
:10128000204600F041F8606810BD00BF1D491C48B1
:1012900009680089496A081A00B2704710B51948F0
:1012A000174C0068416A04F1080089B200F02CF87C
:1012B000E06810BDB0B5114C3C21204601F0AAFAFF
:1012C000104D3C21284601F0A5FA0D480021C160CF
:1012D00041602168496A01802968496A0181B0BD7D
:1012E0000648002100684162054801810180C16013
:1012F0004160044800684162704700BF300400202C
:1013000050010020A0030020B0B502880024002571
:1013100001808B1A13F5004FD8BF0125B3F5004F9C
:10132000A8BF01249142064938BF2C4638BF4FF46C
:101330008031002C18BF0B44416819444160B0BD96
:101340000000FFFF72B6FEE7F8B50022009290F8A9
:101350003C20012A01D1022151E00A6810251FFA20
:1013600082FC092A88BF0C25036802EB42044FEA7D
:101370004C07092A17FA82F75E5988BFA7F11E04A5
:101380000727A740BE435E518E6806FA04F45E59F3
:1013900034435C510124496880F83C40062909D84F
:1013A00001EB81014C1F1F2101FA04F5194651F888
:1013B000346F14E001EB81050C2908D8A5F1230452
:1013C0001F2101FA04F5194651F8306F07E0A5F125
:1013D00041041F2101FA04F5194651F82C6F26EA41
:1013E00005050CFA04F40D600D682C430C60694986
:1013F000A1F54174A34204D0002180F83C100846B6
:10140000F8BD112A0DD0144B9A420AD0122AF3D1FA
:101410000A6822F400020A600A6842F480020A6044
:10142000EAE70B6823F480030B600B6843F40003C6
:101430000B6009498A42DFD1F149084A0968B1FBCA
:10144000F2F101EB81014900009100990029D3D00C
:1014500000990139F8E700BF1200001040420F0068
:10146000002841D070B50446006C30B9204600F029
:1014700099F8002084F83C006064206CC00635D4E4
:10148000206C41F20211884342490230206408680E
:1014900020F44030086094E80D0025690E6832435E
:1014A0000A60416821F480714160416841EA052188
:1014B0004160416821F04071416041681943364BF9
:1014C0004160816821F400618160E16882681143B4
:1014D0008160816821F070618160A26A81689A42AE
:1014E00006D121F040510CE00120704701204CE072
:1014F00011438160816821F040518160E16A826816
:1015000011438160816821F00201816094F82020FC
:10151000217E836843EA4101816041686AB141F4F8
:1015200000611E4A4160416821F460414160616A86
:1015300002EB41314268114301E021F40061416056
:10154000174BC16A21F47001C162E269616903EB62
:101550000252C36A1A43C262826822F40072826035
:1015600094F83020836843EA42228260826822F441
:1015700080628260826842EA8121012281600020CB
:101580006064216C62F301012164002184F83C1045
:1015900070BD00BF042301400100000F00E0FFFF09
:1015A0000000F0FF10B586B0044601A81421FFF733
:1015B0002DF92168124881421FD10021114A00F5FE
:1015C00060400091536943F480735361536903F49D
:1015D00080730093009B0091136843F00103136034
:1015E000126802F00102009203910321029104218A
:1015F0000191009901A900F0C5F906B010BD00BF26
:10160000002001403038024070B5866D044600F07D
:1016100085FA054694F83500022821D12068216C0E
:10162000026822F016020260426922F080024261E2
:1016300009B9A16C19B1016821F00801016002F03B
:10164000D6FD20680068C0070ED000F067FA401B86
:101650000628F6D320206065032084F835000CE0CE
:1016600080206065012008E0E06D3F2101FA00F074
:10167000B060012084F835000020002184F8341087
:1016800070BD90F83510022909D1052180F8351078
:101690000068724602F0ABFD96460020704780213C
:1016A0004165012070470000F8B504460020544A07
:1016B00008210090D4E916601568376881403942E6
:1016C0000CD0226813685B0708D5136823F0040365
:1016D0001360B160616D41F00101616501218140DC
:1016E000394208D022685269120604D5B160616D92
:1016F00041F00201616504218140394208D022682D
:101700001268920704D5B160616D41F00401616512
:1017100010218140394217D020680268120713D582
:10172000B16002680168520306D4C90506D4016895
:1017300021F00801016001E0080301D4216C00E000
:10174000A16C09B120468847E16D202000FA01F222
:101750003A4233D020680368DB062FD5B26094F894
:1017600035300268052B15D122F01602026042695D
:1017700022F080024261226C0AB9A26C1AB102689E
:1017800022F0080202603F208840B06002F01EFC98
:10179000216D2FE00168520308D4C9050AD40168FD
:1017A00021F01001016002F011FC03E0080301D4F4
:1017B000616C00E0E16B09B120468847606DF0B1D3
:1017C000606DC00715D005214FF4165084F8351010
:1017D000B5FBF0F021680A6822F001020A60009A65
:1017E00001328242009202D80A68D207F7D102F091
:1017F000EDFBE16C19B12046BDE8F8400847F8BDA3
:10180000840000202DE9F041044600F087F9ACB1D6
:101810000546022084F8350002F00BFC206802F037
:10182000E6FC21680868C0070BD000F077F9401B80
:101830000528F6D90325202603205BE00120BDE81A
:10184000F081086804F1040C2D4A9CE8E81100EAD4
:10185000020ED4E9072043EA0E032B4333433B43F4
:1018600043EA08031A43636A104340EA0C02042B5C
:1018700003D1D4E90B05284302430A60042B4869CD
:1018800020F0070040EA030228D1D4E90A733A4362
:1018900023B3BCF5005F08D0BCF1000F14D1022FB8
:1018A00015D0012F0AD0002F10E0032F16D80125E4
:1018B00040260120DFE807F01E0B1E02A3F1C070D6
:1018C000B0FA80F0400904E0032F03D306D1C3F33C
:1018D000006018B10125402601200BE020464A6136
:1018E000FFF752FCE16D3F220026012502FA01F1CB
:1018F00081600020666584F83550BDE8F08100BF46
:101900003F8010F0B0B502F021FC27D00120A56D7A
:1019100084F8340094F8350001281DD1022084F8A1
:101920003500002060652046FFF746FCE26D3F234E
:101930002068216C03FA02F2AA60026842F01602E3
:10194000026019B1016841F008010160016841F0CD
:10195000010101600020B0BD02F06BFB0220B0BDB0
:10196000B0B5044600F0DAF805460548611C007879
:1019700018BF044400F0D2F8401BA042FAD3B0BD17
:101980007C0000202DE9FE4F5E4A07244FF0010B3A
:101990004FF0000C90425C4A08BF062402444FEA14
:1019A000B223062B38BF4FEAB22400F12002019483
:1019B000009200250022102A08BFBDE8FE8F0C68A7
:1019C0000BFA02FA14EA0A0900F09780D1F804E051
:1019D000032303FA0CF40EF00308E643A8F1010414
:1019E000012C12D88468D1F80CB00BFA0CF73440F3
:1019F0004FF0010B3C438460CEF3001447689440E1
:101A000027EA0A073C43446005E0B8F1030F02D11E
:101A10004FF0030823E0C4688F68344007FA0CF7DE
:101A20003C43B8F1020FC46019D105F01C040F2328
:101A3000A84603FA04F76FF0030303EA520E009B73
:101A40001D4653F80E30BB430F6907FA04F42343D5
:101A500045F80E304546D1F804E00EF0030804685E
:101A600008FA0CF3344023431EF4403F036044D093
:101A70000023284C254EA8460293236843F4804354
:101A8000236023680F2403F48043029305F00C03C2
:101A900022F00305029F35449C401F4FBE46EF597C
:101AA00027EA0404019F07FA03F3234345F80E30A5
:101AB000B3684D6843EA0904EF0258BF23EA0904FA
:101AC000134BB460AF029E461B6843EA090458BF3B
:101AD00023EA0904CEF80040AF03736843EA09041F
:101AE00058BF23EA09047460ED033368454643EAAE
:101AF000090458BF23EA090434600CF1020C0435D0
:101B0000013258E7001802400000FEBF003C0140CF
:101B10000C3C01404438024008FCFFFFEC480068E0
:101B2000704700BF30B3F8B5044690F83D0020B9C7
:101B300002F01DFC204600F08DF9242084F83D00C1
:101B4000206802F06BFB016841F40041016001680C
:101B500021F40041016000F0E3FA6368364A374936
:101B600093423CBF48F28041C0F21E01884203D23A
:101B70000120F8BD0120704731494FF47A77B0FB5E
:101B8000F1F521684E6826F03F062E434E604FF473
:101B900096766E43934228BFB6FBF7F56A1C0D6A32
:101BA00025F03F052A434CF6FF750A62CA69AA432D
:101BB000244DAB4207D85B00013802F0ECFB04284F
:101BC00098BF042013E0A56801383DB119256B4387
:101BD00002F0E1FB50B100F5804004E003EB430369
:101BE00002F0D9FB10B100F5004000E001201043E5
:101BF00004F10C06C861E0690A6822F0C0021043D3
:101C0000226A104348F2FF320860886890436CCE25
:101C1000184310438860C86820F0FF002843304311
:101C2000C86002F0E7FB00202021206484F83D100A
:101C3000206384F83E00F8BDA186010000093D0044
:101C400040420F00A08601002DE9FE431F461646C4
:101C50000D4602F09DFB814602F052FB08D17B4904
:101C600002F000FC02F057FA10B902F005FB02D1B5
:101C70000220BDE8FE8302F003FB03D1136843F0AA
:101C800001031360136823F40063136022223B46B0
:101C900002F03AFB6E493246608DE16229462085AA
:101CA0002046CDE9008901F0C3FA08B102F0D7BBA4
:101CB000208D02280DD0012804D0002190B9029176
:101CC000216803E002F07BFA0022029202F02AFB74
:101CD0000FE002F074FA0A6842F400620A6000221F
:101CE000029201E0029121684A6902928969029197
:101CF00002991F4F010437D080B203280AD8022866
:101D000027D0012817D102F00AFA0028CED102F01C
:101D100084FB24E002F003FA0028C7D102F07DFB27
:101D200002F0C6FAE6D580B2032801D102F045FBE5
:101D30000869107013E002F05FFA0028B6D120683D
:101D4000616A02F091FA0069087002F040FB02F04B
:101D5000CEFA02F051FA0028A8D102F0B9F902F047
:101D600036FB02F05FFBC5E702F0EAFABDE8FE834E
:101D7000040001002DE9FE43994602F060FA054691
:101D800002F0BEFA09D1314902F06CFB009501F076
:101D90002DFB10B902F070FA02D10220BDE8FE83DB
:101DA00002F06EFA03D1136843F001031360136865
:101DB00023F40063136021224B4602F0A5FA244964
:101DC0003246608DE162394620852046CDE90085A6
:101DD00001F094FA08B102F042BB218D080422D030
:101DE000204641462A4601F088FB10BB606A226803
:101DF000014611F8013B1361638D013B638561620C
:101E0000238D591E218556697607E7D509044FF0C1
:101E10000001E3D0417802301161991E6062218592
:101E200002F065FADAE7204641462A4601F0BAFA9E
:101E300028B1206C0428CED102F027F9CBE702F0BC
:101E400024F902F07DFABDE8FE8300BF0200100015
:101E50000000FFFFB0B586B0044601A81421FEF7CC
:101E6000D5FC21681448814224D10025134C00F58B
:101E7000D8300095216841F002012160216801F00D
:101E800002010091042105910321CDE903511221A2
:101E900002914FF440710191009901A9FFF772FD81
:101EA0000095206940F400102061206900F40010C2
:101EB0000090009806B0B0BD005400403038024099
:101EC0001F48034900780A6810440860704700BF43
:101ED0005006002080B50B48016841F40071016094
:101EE000016841F480610160016841F48071016022
:101EF000032000F079F80F2000F006F800F022F837
:101F0000002080BD003C024070B50D4E04464FF4E9
:101F10007A713078B1FBF0F08B490968B1FBF0F0D1
:101F200000F0F4FA01250F2C08D838B94FF0FF3033
:101F300021460022002500F031F87460284670BD6B
:101F40007C00002082B000200B4901904A6842F4D6
:101F500080424A604A6802F480420192019A0090ED
:101F6000086840F080500860086800F080500090D9
:101F7000009802B0704700BF40380240002809D4E2
:101F80001C21012201EAD00100F01F0002FA00F03A
:101F9000014A8850704700BF00E100E0F0B5184BDF
:101FA0004FF0FF361C68C4F30224E51E84F00704DA
:101FB00038BF002506FA05F7BA43042C28BF0424CD
:101FC00006FA04F4A14300F00F04A940043C1143B5
:101FD000044A234409010244002848BF03F10C02CB
:101FE0001170F0BD00E400E005494FF6FF030A68F8
:101FF0001A4060F30A22034810430860704700BF8C
:102000000CED00E00000FA05002853D02DE9F04166
:10201000404B0446884601F0D4FF814205D983F83D
:10202000008401F0CEFF40454DD12068810711D5D5
:10203000410703D5996841F4E0519960010703D540
:10204000996841F460419960A1689A6822F0F002B1
:1020500011439960C0072FD101F0B3FF804505D22D
:1020600083F8008401F0ADFF40452CD12068410782
:1020700005D5E1689A6822F4E0521143996000079F
:1020800006D52069996821F4604141EAC000986052
:102090001C4600F05FF8A1681F4AC1F30311515CB0
:1020A000C840294908601D480068FFF72DFF00203F
:1020B000BDE8F081012070476068811E022905D2C9
:1020C0001968890107D40120BDE8F08101281DD1DC
:1020D00019688903F7D599681D4621F00301084363
:1020E0009860FFF71BFD064641F288376068A968D3
:1020F0002B4601F00C01B1EB800FADD0FFF70EFDC8
:10210000801BB842F2D90320BDE8F0811968890725
:10211000D9D5E0E700380240AC6F0008800000200D
:1021200009480A490A4A00680968C1F38221515CDA
:10213000C840704704480549054A00680968C1F36A
:102140004231515CC840704784000020083802408A
:10215000BC6F000810B5164C6068C0F381011548CB
:10216000DFE801F02402040A134810BD01F0E5FF86
:1021700008D402F027F909E001F0DFFF0DD402F0E6
:1021800021F90EE00C484843B0FBF2F0216802222E
:10219000C1F3014102EB410106E007484843B0FBAF
:1021A000F2F02168C1F30271B0FBF1F010BD00BF85
:1021B000043802400024F40000127A00002871D094
:1021C0002DE9FC4104460078CD4EC0070BD002F04B
:1021D000B3F8042840F09B803068800303D5606822
:1021E000002800F091802078800720D5B06810F09A
:1021F0000C0F0FD002F0A0F8082802D1706840023E
:1022000008D502F099F80C2840F0AF8070684002C1
:1022100000F1AB803068800702D5E068012873D1F7
:102220002069316821F0F80141EAC000306020786F
:10223000000739D42078400749D4A7697FB302F05A
:102240007BF8082840F0B580012F5DD0E169706807
:1022500000F480028A4257D1216A00F03F028A428C
:1022600052D147F6C071626A0140B1EB821F4BD177
:10227000A16A4FF6FF72C903914300F44032A1F501
:1022800080318A4240D1E16A00F07062B2EB016FA6
:102290003AD1216B00F0E040B0EB017F34D1002057
:1022A000BDE8FC810120704761699648002970D023
:1022B0000121C0F8801EFFF731FC0546706F8007D2
:1022C000B8D4FFF72BFC401B0228F7D9CAE0306CCA
:1022D0005FEAC00805D40020019001F0E1FF019001
:1022E0000198894F3868C00531D4386840F480704F
:1022F00001F09CFE05463868C00528D4FFF70EFCA7
:10230000401B0228F7D9ADE00120BDE8FC8102F0B6
:1023100013F8082803D1706840023FF55DAF02F062
:102320000BF80C2803D1706840023FF555AF3068B8
:102330006168B1F5803F06D0B1F5A02F7DD140F4A2
:1023400080203060306840F4803030607EE0306F54
:10235000A168012905D0052949D140F00400306762
:10236000306F40F0010030674AE0E068002855D047
:10237000644801210160FFF7D1FB05463068800702
:102380003FF54EAFFFF7CAFB411B03200229F5D9E9
:1023900086E70021C0F8801EFFF7C0FB0546706F7E
:1023A00080077FF547AFFFF7B9FB401B0228F6D93E
:1023B00058E05449002088460866FFF7AFFB054601
:1023C000022F09D1306880014FD5FFF7A7FB411BD1
:1023D00003200229F6D963E7306880017FF55FAFFB
:1023E000FFF79CFB411B03200229F5D958E720F099
:1023F000010000293067306F20F00400306758D0AA
:10240000FFF78CFB054641F28837306F80075FD4B9
:10241000FFF784FB401BB842F7D923E0394801F0AD
:10242000E2FE0546306880077FF501AFFFF776FBD7
:10243000411B03200229F5D932E720F4803000291E
:102440003060306820F4802030604AD0FFF766FBAF
:102450000546306880033FF5C6AEFFF75FFB401BC3
:102460006428F6D90320BDE8FC8104F11C05246B27
:102470002FCD0843D90340EA82104FF6FF729143F3
:1024800040EA0560A1F58031084340EA04707060BD
:102490000120C8F86000FFF741FB04463068800166
:1024A0003FF5FDAEFFF73AFB011B03200229F5D9EA
:1024B000F6E6FFF733FB054641F28837306F8007B9
:1024C00006D5FFF72BFB411B0320B942F6D9E7E6FF
:1024D000B8F1000F3FF5B1AE306C20F080503064A1
:1024E000ABE6FFF71BFB0546306880037FF57BAE4C
:1024F000FFF714FB411B03206429F5D9D0E600BF88
:10250000003802400000474200700040411E002099
:10251000B0EB116F1CBF01207047044AF0235160DB
:1025200003490B70072190601160704710E000E0D4
:1025300023ED00E090F83C300222012B2FD010B5A3
:1025400080F83D2002680B68546824F070041C4336
:102550009368B2F1804F546014D0E34CA24211D082
:10256000AA4CA2420ED00F4CA2420BD00E4CA2425B
:1025700008D00E4CA24205D00D4CA24202D00D4C08
:10258000A24204D1496823F08003194391600022DC
:10259000012180F83C2080F83D10BDE81040104635
:1025A000704700BF000C00400018004000000140D0
:1025B000004001400004014070B110B501F09BFEE5
:1025C00003D101F007FE00F009F801F07EFE0120C2
:1025D00001F003FD01F0EFBD012070470068C24922
:1025E000884200D0704781B0002000900548016803
:1025F00041F002010160006800F0020000900098C4
:1026000001B070474038024010B501F065FE61D05E
:1026100084F83D0001204FF6777384F83C00206871
:1026200082689A4382600A68EAB1102A1BD0202A85
:1026300019D0302A17D0402A3DD0502A32D0602AF3
:1026400018D0B2F5005F21D0B2F5805F3CD0702A7F
:1026500026D1D1E90123C96801F0A1FD816081681B
:1026600041F077012FE0816821F07001114341F0C2
:10267000070128E04B68CA68194602F0FAF9206899
:10268000816841F0670121F010011CE0D1E90123CC
:10269000C96801F084FD8160816841F4804112E0E5
:1026A000012012E001F07DFE2068816841F05701B1
:1026B00021F0200107E001F074FE2068816841F0FC
:1026C000470121F030018160002001F04CFE012122
:1026D00084F83D1010BD002846D0F8B5044690F8A7
:1026E0003D000D4618B901F075FD00F03FF80220DD
:1026F00044F2070284F83D002068816891438160BC
:10270000211D02F071F82668D5E9000CD5E90223F5
:10271000B7683843B769316AB060A86942EA0020F7
:102720004FF6FC4290434FF6FF7227EA02021A432B
:102730001043EA6940EA02202A6940EA02102A6A44
:1027400040EA0230B06121F0AA00696940EA0C0059
:1027500040EA01103062012001F005FD01F0A9FC02
:1027600084F83D000020F8BD0120704710B586B008
:10277000044601A81421FEF749F82068AF498842B1
:102780001CD0B0F1804F3ED10020584900900A691A
:1027900042F001020A610A6902F001020092009A05
:1027A00000900868012240F00100086008680321D9
:1027B00000F001000090009815481AE000204B49F5
:1027C00000900A6942F004020A610A6902F00402F8
:1027D0000092009A00900868022240F0020008600F
:1027E0000868C02100F0020000900098084800F539
:1027F000806005920022CDE903220222CDE9011278
:1028000001A9FFF7BFF806B010BD00BF00080040E7
:102810000000024070B501F006FD05D061B9012E3F
:1028200008BF012B17D070BD012D08BF012AFAD1B6
:10283000022001F057FD0CE0012E08BF012DF2D15E
:10284000012BF0D1012AEED101F014FC06D001F0E9
:1028500006FD042103E0022001F054FC0021206861
:1028600001F007FD206801F092FC002070BD00001F
:10287000F0B587B0044602A81421FDF7C7FF206811
:102880006D4DA8422DD100261848022701960168F7
:1028900041F001010160016801F00101019101991C
:1028A0000196016841F002010160006800F0020039
:1028B0000190C020CDE90567CDE90376029001982B
:1028C00002AC05F5FE302146FFF75CF803202146F7
:1028D000CDE90567CDE90376029005F50030FFF7F5
:1028E00051F807B0F0BD00BF00040040303802408E
:1028F000B0B501F084FD04BF0220B0BD01F03BFD86
:1029000037D8DFE801F002220A1A2068294601F0D0
:10291000E9FF206850F8181F06E02068294602F0F9
:1029200041F8206850F81C1F41F00801016001685F
:1029300021F004010160296917E02068294602F0AE
:1029400061F8206850F81C1F06E02068294601F055
:10295000F9FF206850F8181F41F400610160016818
:1029600021F4806101602969090202681143016054
:10297000002001F0F8FCB0BD70B110B501F0BBFC57
:1029800003D101F027FC00F009F801F09EFC0120C2
:1029900001F023FB01F00FBC0120704770470000DD
:1029A00010B50446A1B1042904D0082914BF412060
:1029B000402000E03F20205C012811D1022008299E
:1029C00010D0042914BF84F8410084F83F000BE0C4
:1029D00094F83E00012803D1022084F83E0003E071
:1029E000012010BD84F84000206801F042FC01F095
:1029F00095FC19D01049884216D01049884213D04E
:102A00000F49884210D00F4988420DD00E498842A4
:102A100005D00E49884207D00D49884207D1416C44
:102A20000B4A01F0DBFC02D101F0CFFB01D001F039
:102A3000AEFB002010BD00BF0004004000080040B5
:102A4000000C004000180040000001400040014020
:102A50000004014070477047F8B5044600680268FA
:102A6000C168466915074FEA82633FD001F4907749
:102A700006F00106BF193DD0D70705D0CF0503D515
:102A8000676C47F001076764570704D51EB1676C90
:102A900047F002076764920704D51EB1626C42F0EA
:102AA00004026264002D07D501F02002921903D0C0
:102AB000626C42F008026264626C002A00F0E580F9
:102AC000002B05D5890603D5204602F083F820683F
:102AD0004069616C00F0400001F00801401847D1E6
:102AE0002046FFF7B8FF00206064CEE0002B01D540
:102AF0008B0653D4236B012B03D1D30601D5CB0610
:102B000051D4130601D50B0611D4520640F1BD80F5
:102B1000490640F1BA80C16821F04001C16020201F
:102B200084F841002046BDE8F84000F05DBB94F811
:102B30004110212940F0A980A168B1F5805F03D13F
:102B40002169002900F0A280216A4A1C22620978CA
:102B50004160E18C0139E184090440F09680C1684C
:102B600021F08001C160C16841F04001C160F8BD41
:102B700001F012FB01F01BFB49D501F041FAFCD139
:102B8000E06B002843D045490165FEF77AFD002837
:102B90007BD0E06B016DBDE8F84008472046BDE8FA
:102BA000F84002F017B800210091016800914168D7
:102BB00000910099406940062ED4E08DA18DE28DF0
:102BC000002A62D0814260D0081A01F0ADFA21F4E7
:102BD000907142E80313002BF7D1216851E8051FDB
:102BE000226821F0010142E80513002BF5D12021D4
:102BF00084F842100021216301F096FA21F01001BF
:102C000042E80313002BF7D1022161632EE0204636
:102C1000BDE8F840FFF71FBFE06BA28D01684B686D
:102C200099B249B3914227D2E385C069B0F5807F5C
:102C300017D001F00AFC20F4807001F02CFAF8D1D2
:102C400001F087FBFCD101F0DBF9FCD1202084F8F6
:102C500042000020206301F0D7FAFCD1E06BFEF7C0
:102C6000D3FC02206063A08DE18D401A81B2204622
:102C7000BDE8F840FFF7EEBE8A4206D1C069B0F564
:102C8000807F02D102206063F1E7F8BD216A31F84C
:102C9000022B6FF35F22216242605AE7974A0008D5
:102CA00078B110B501F033FA08B901F0BFFB01F0BB
:102CB000CFF901F0D8F921F02A01416101F05AFA67
:102CC00010BD0120704700002DE9F04387B0044695
:102CD00002A81421FDF79AFD2068424988423DD0A0
:102CE000F34988427BD100263F484FF007084FF058
:102CF000030902273D4C0196016941F480210161DD
:102D0000016901F4802101F089F9016801F00401F1
:102D1000019101990196016841F00201016000688A
:102D200000F0020001900198CDF81880CDE9046907
:102D300003972020029002AD20462946FEF722FE8E
:102D40004FF480602946CDE90598CDE903760290DD
:102D5000A4F58060FEF716FE272438E000262248FE
:102D60000196416941F020014161416901F0200172
:102D700001F054F9006800F004000190082006906A
:102D80000320CDE9046002200390C0200290019846
:102D900002A91648FEF7F6FD154D4FF48070154B4D
:102DA0004FF480614FF02062C5E906602846C5E90E
:102DB0000866C5E90032C5E90266C5E90416FEF7F2
:102DC00021FD08B1FEF7BEFAAC63E5634724204657
:102DD00000210022FFF7E2F82046FFF7CFF807B006
:102DE000BDE8F08300140140303802400008024082
:102DF000EC0200202864024090F84230202B1CBFD7
:102E00000220704721B11AB10023036301F0A2BF71
:102E10000120704710B590F84230202B06D139B10F
:102E200032B10024046301F0DDFF02E0022400E07F
:102E30000124204610BD000000689D49884200D052
:102E40007047F8B52DED088B9EB09A4C2078A528D8
:102E50001AD0002824D16078112800F2D980DFE848
:102E600000F0096495A1708390D255B0D7D7D7D719
:102E7000D7D7617F914804226423411D904800F018
:102E800044F900F0D7FF41E06078202830D0522884
:102E90000CD0252813D18948092200F126012BE006
:102EA00086480B2200F13B0185482CE082480068EF
:102EB000012804D181480C2200F147011CE07F4821
:102EC0007F4D814F03226423411C2846B847A61C2E
:102ED00062787EA13046FDF789FA28463146022203
:102EE0006423B8477748214602226423B8470DE09F
:102EF00072480A2200F130017148642300F005F99C
:102F000070486C490222642300F0FFF86C4869495C
:102F10000222FFF77FFF1EB0BDEC088B01B0BDE8B9
:102F2000F0407047644801211CE064480722642394
:102F300000F11501624800F0E8F8962000F01EFF4D
:102F4000E4E75E480522642300F10F015C4800F0CD
:102F5000DCF84FF4C8704FF4C87100F08BFFD5E770
:102F6000554800210160D1E704F14800FEF737F928
:102F7000002061A10F22C4E90E00C4E908005048F6
:102F800050E0E068C0F10100E060BFE74B48082274
:102F9000642300F11D014A4800F0B7F8962000F0C4
:102FA000C5FEB3E745480422642300F10A01444802
:102FB00000F0ABF84FF4C8704FF4C87100F04AFF4E
:102FC000A4E794ED1A8A18EE100A03F06FFE05AD1F
:102FD000024641EC190B0B463EA12846FDF706FAC6
:102FE0002846FDF76DFB82B235482946642300F080
:102FF0008CF832480178C1B1002194ED0CBA94EDFF
:103000000DAA01702BE02069C0F1010020617DE76D
:103010002C48214601224FF47A7300F076F82848B4
:10302000214601224FF47A736EE794ED050A94ED80
:10303000081A94ED0A3A94ED092A94ED0B4A38EEF9
:10304000400A31EE43BA32EE44AA10EE100A84ED83
:103050000CBA84ED0DAA03F029FE41EC190B1BEE0E
:10306000100A03F023FE05461AEE100A0E4603F07E
:103070001DFE41EC100B46EC115B1E4953EC192B65
:103080008DED001B8DED020B05AD2846FDF7AEF969
:103090002846FDF715FB82B209482946642300F053
:1030A00034F8D4E9080184ED058AC4E90A012DE762
:1030B00000480040B00100209400002000000020E3
:1030C00078040020C00400200B310008253032783D
:1030D0000000000043757272656E7420416E676C6B
:1030E000653A20252E326620646567726565730A2D
:1030F00000000000C46F0008456E636F64657220B5
:1031000052657365740D0A0070472DE9F84300F0AD
:10311000FEFF20281CBF0220BDE8F883884679B353
:1031200017466AB300201D466064212084F84100E0
:10313000FEF7F4FCE7840646A784A068B0F5805F3C
:1031400001D1206998B34FF000094746E08CD0B117
:103150002046802132462B4601F05DFE08BB27B198
:1031600017F8010B2168486006E039F8021B206857
:1031700000276FF35F214160E08C0138E084E5E7D0
:103180000120BDE8F8832046402132462B4601F05D
:1031900042FE202184F84110002818BF0320BDE81A
:1031A000F883202084F841000320BDE8F88300273D
:1031B000C146CBE7034690F8410020281CBF0220FF
:1031C000704779B172B110B500202124DA845864B7
:1031D00083F8414019629A841968CA6842F08002F3
:1031E000CA6010BD01207047F749884200D070477F
:1031F00001480021017070474C060020FEE702687C
:10320000516949054FF000010FD56FF48063536198
:103210002022016380F83D2080F83E1080F83C10A9
:10322000016C41F00401016401210846704700006F
:103230002DE9FC4B044600680F4690469946002253
:1032400001F0A1F8016801F011F90B9D00950A9EAB
:10325000334600F0CBF848B120680068C00544BF91
:103260004FF4007020640320BDE8FC8B07F0FE0BD8
:1032700020684B4F32462B46C0F810B020463946E6
:1032800000F0E3F8F8B900202A4601F0E3F83146EF
:10329000806901900198204600F02FF970B92068EC
:1032A000B9F1010F05D04FEA182101F0C5F828B98E
:1032B00020685FFA88F101F0BFF838B1206C04286B
:1032C00001D100F0E2FE0120BDE8FC8B2068002265
:1032D0003346016801F0CAF8009500F087F800282D
:1032E000BAD120684BF0010132462B4601612046DD
:1032F000394602B0BDE8F04B00F0A7B82DE9FE4317
:10330000044600680E460A9D0B9F9946904600228F
:1033100001682B4601F0AAF801F094F848B1206842
:103320000068C00544BF4FF4007020640320BDE86E
:10333000FE83206806F0FE012A463B4601611849DB
:10334000204600F082F808B101F089B800203A4622
:103350000290206841690291294680690290029892
:10336000204600F0CAF828B1206C0428ECD100F007
:103370008CFEE9E72068B9F1010F0AD04FEA182165
:103380003A4601612046294600F0B7F80028EBD103
:1033900020685FFA88F101610020BDE8FE8300BF6C
:1033A00002000100F8B515460E4604464F1C206881
:1033B0004069400744BF0020F8BD2046FFF71FFFCB
:1033C00090B9002FF3D0FEF7A9FB401BB04201D803
:1033D000002EECD1206840694007E8D400F0BBFE25
:1033E00084F83C0000F089FE0120F8BD2DE9F0478B
:1033F000DDF8209004469846164601F47F00182711
:103400008DB203F1010AB0F5803F08BF142700F028
:10341000FBFF17D1BAF1000FF9D0FEF77FFBA0EB4D
:103420000900404502D8B8F1000FF0D100F0ECFFE0
:10343000EDD100F090FE84F83C0000F05EFE01202B
:10344000BDE8F0870020BDE8F0872DE9F0419846FF
:10345000164604468FB2551C206841693940B9426E
:1034600013D04169490513D4002DF5D0FEF756FB62
:10347000A0EB0800B04201D8002EEDD120684069D1
:103480003840B842E8D020200AE00020BDE8F081B2
:10349000016841F4007101606FF4806141610420B2
:1034A00000F0D2FE084320640120BDE8F08170B531
:1034B00015460E46044620684169490644BF00206F
:1034C00070BD4169C9060DD4FEF728FB401BB04210
:1034D00001D8002EEFD1206840694006EBD400F0FF
:1034E000ACFD05E06FF01001416100F034FE206C8E
:1034F000206400F03CFF012070BDF8B515460E4673
:1035000004464F1C20684069000644BF0020F8BDF7
:103510002046FFF774FE90B9002FF3D0FEF7FEFAB5
:10352000401BB04201D8002EECD120684069000653
:10353000E8D400F010FE84F83C0000F0DEFD01202D
:10354000F8BD000070B52DED101B04461E481FA1EC
:1035500024226423FFF7D9FD9FED258A0025642DE1
:103560000FD2204600F000FAB4F90A600A20FEF7F4
:10357000F7F900EE106A0135B8EEC00A38EE008A9D
:10358000EDE79FED1C0A9FED1C1A0120207688EEC6
:10359000000A80EE010A10EE100A84ED050A03F01D
:1035A00085FB0DF1060402460B4614A12046FCF7EC
:1035B0001DFF2046FDF784F882B2034800F0B9FDF4
:1035C000BDEC101B70BD00BF7804002043616C6926
:1035D00062726174696E67206779726F205A2E2E4D
:1035E0002E204B656570207374696C6C210A000095
:1035F000000000000000C842000003434779726FDA
:10360000205A206F66667365743A20252E34662032
:10361000B02F730A000000002DE9F0438DB040F296
:103620006B10274C274F4FF0FF384FF00109D02186
:103630006B220123ADF832000DF13200CDF8088085
:10364000451C2046CDE90059B8471F4E0A20B04717
:103650001B20D0211B2200F07FFC0A20B04740F243
:103660001A60D0211A2200F077FC0A20B04740F6F9
:103670001910D021192200F06FFC3220B047002031
:10368000D02175220123CDF808808DF831000DF18D
:103690003100CDE900092046FEF7D6FA0DF11104FC
:1036A0009DF8312009A12046FCF7A0FE2046FDF739
:1036B00007F882B2D74800F03CFD0DB0BDE8F083BA
:1036C0004C030020751D00086119000857484F5F22
:1036D000414D5F493A203078253032580A000000C9
:1036E00000210161704700002DE9F04F99B00546B7
:1036F0004948129048A013AF061D007E5ECE8DF89B
:1037000060004C485EC74C4C12A918226423A047A5
:10371000B5F90000B5F90270B5F904B003F0A3F8EB
:103720009FED390B56EC104B00F074FC8246384686
:10373000894603F098F800F06DFC07465846884625
:1037400003F091F800F066FC41EC100B48EC117BA3
:103750000DF1160B414C39A152464B4658468DEDA2
:10376000001B8DED020BA0473D495846884782B2A9
:103770003048314C59466423A047B5F90600B5F9E5
:103780000860B5F90A8003F06EF89FED210B54EC48
:10379000107B00F024FD049030468A4603F063F865
:1037A00000F01DFD06464046894603F05CF800F037
:1037B00016FD41EC100B49EC116B049A274F29A11F
:1037C000584653468DED001B8DED020BB847DFF8D0
:1037D00090805846C047174C174E82B25946642312
:1037E0002046B047286903F061FA02460B4625A13E
:1037F0005846B8475846C04782B2204659466423C7
:10380000B04719B0BDE8F08F000000000000103F85
:1038100000000000006060403D3D3D20506879732D
:103820006963616C2056616C756573203D3D3D0A8E
:1038300000000000780400200B310008416363653C
:103840006C202867293A20252E34662C20252E341A
:10385000662C20252E34660A00000000ED030008C7
:10386000C10600084779726F20282F73293A202556
:103870002E34662C20252E34662C20252E34660A04
:103880000000000043757272656E7420416E676CB3
:10389000653A20252E326620646567726565730A75
:1038A00000000000F0B593B005461A481F4F0E9077
:1038B00018A00FAC031D008A0ECBADF848000EC453
:1038C0000EA911226423184C2046B847B5F904000C
:1038D000B5F90020B5F902300DF1060614A10090EB
:1038E0003046FCF783FD3046FCF7EAFE00F0D3FCDF
:1038F000B5F90A00B5F90620B5F9083013A1009012
:103900003046FCF773FD3046FCF7DAFE00F0C3FCEE
:1039100013B0F0BD3D3D3D2052617720446174619C
:10392000203D3D3D0A000000780400200B310008D6
:10393000416363656C2028582C592C5A293A20255C
:10394000642C2025642C2025640A00004779726FBE
:103950002028582C592C5A293A2025642C202564DB
:103960002C2025640A00000010B58CB004464FF0EE
:10397000FF300E210DF12202012302901F48CDE9F4
:103980000021D0213B22FEF75FF990B11C48049042
:103990001BA005AC031D007C0ECB8DF820000EC4CF
:1039A00004AC2046FCF78CFE82B2D34800F0C1FB89
:1039B00022E0BDF8220000BA000C2080BDF82400EF
:1039C00000BA000C6080BDF8260000BA000CA08090
:1039D000BDF8280000BA000CA081BDF82A0000BA8A
:1039E000000CE080BDF82C0000BA000C2081BDF86E
:1039F0002E0000BA000C60810CB010BD4C030020FA
:103A00004932432052656164204572726F72210A07
:103A10000000000078040020017EF9B1B0F90A101E
:103A20009FED122A90ED053A01EE101AB8EEC11A78
:103A300081EE022A90ED041A33EE022A02EE001AF9
:103A40009FED0C0AB4EE401A80ED041AF1EE10FA64
:103A500005DAB5EE401AF1EE10FA02DB70479FED81
:103A6000040A31EE000A80ED040A7047000003C327
:103A70000000B4C30000B443BFB51348144B134A4D
:103A8000002401254FF480310394C46280F8204063
:103A90000576836280F83040C561C0E90021C0E945
:103AA0000244C0E90455FDF7DBFC08B1FDF74AFC10
:103AB00002206946CDE9015400900348FDF744FC1B
:103AC00008B1FDF73FFCBFBDA4020020002001406B
:103AD0000100000FE0B5002000220190204801689D
:103AE00041F4800101600021006800F48000019031
:103AF00001983920FEF752FA3920BDE88C40FEF7D4
:103B00003DBA00BF81B0002115480091026842F023
:103B100004020260026802F004020092009A00911E
:103B2000026842F080020260026802F080020092A5
:103B3000009A0091026842F001020260026802F0FD
:103B400001020092009A0091016841F002010160B7
:103B5000006800F002000090009801B0704700BFBC
:103B60003038024010B50B480B4B0C4C00214FF481
:103B70008042C0E90043C0E90211C0E90421C0E964
:103B800006110162FDF7CEFF18B1BDE81040FDF748
:103B9000D9BB10BD4C030020A0860100005400409A
:103BA00080B58CB00B4800214FF0FF324FF08043BE
:103BB00000F0E0F903A9FEF78EFD08B1FDF7C2FBA6
:103BC00004486946FEF7B6FC08B1FDF7BBFB0CB034
:103BD00080BD00BFA003002010B58EB000241C21C2
:103BE0000D94CDE90B44CDE9084401A8FCF70EFE85
:103BF000AB482A4B40F2E73147228461C0E90032EA
:103C0000C0E902410461FEF7D7FC08B1FDF79AFB59
:103C10004FF480500A90A2480AA9FEF7F5FC08B1BB
:103C2000FDF790FB9E48FEF7A7FE08B1FDF78AFB63
:103C300000249B48CDE9084408A9FEF77BFC08B1A5
:103C4000FDF780FB4FF4FA70059403940022029074
:103C500060200190924801A9FEF74AFE08B1FDF7E5
:103C600071FB8F4801A90422FEF742FE08B1FDF75F
:103C700069FB8B4801A90822FEF73AFE08B1FDF75F
:103C800061FB874801A90C22FEF732FE08B1FDF75F
:103C900059FB8348FEF7ECFD0EB010BD0004004058
:103CA00080B58CB00A4800214FF6FF72094B00F036
:103CB00061F903A9FEF70FFD08B1FDF743FB0448C6
:103CC0006946FEF737FC08B1FDF73CFB0CB080BD40
:103CD000300400200008004010B50748074C0021C0
:103CE0000C224FF4612300F058F918B1BDE81040E0
:103CF000FDF728BB10BD00BF78040020004800403D
:103D000010B50748074C00210C224FF4E12300F0C6
:103D100044F918B1BDE81040FDF714BB10BD00BF59
:103D2000C004002000140140FEE70000B0B540F2DE
:103D3000E735824CA84228BF284600F002F904F17A
:103D40002C0000F09BFB94ED020A554994ED0D1AEE
:103D5000BDEEC00A10EE100ABDEEC10AA84228BF8F
:103D600028460968486300208863C86310EE100A7B
:103D7000A84238BF05460D64B0BD00BFB0B540F2E3
:103D8000E7356E4CA84228BF284600F0DAF804F167
:103D90002C0000F073FB424800210068416394ED61
:103DA000020A94ED0D1ABDEEC00A10EE102ABDEE07
:103DB000C10AAA4228BF2A46826310EE102AAA42EC
:103DC00038BF1546C5630164B0BD00BFB0B5344C03
:103DD000094D00212046A84720460421A847204637
:103DE0000821A84720460C21A84700F007F8BDE8A5
:103DF000B04000F01FB800BFA1290008B0B54F487F
:103E00000A4B094A0A4C00214FF080458162426208
:103E1000C0E903544361C0E90E5403640162C0E980
:103E200013124165B0BD00BF00C079449A99993E14
:103E3000CDCC4C3F1A48414A002100684163816360
:103E4000C163C2E91111D164C2E9061111620164B2
:103E5000704700BF124B40F2E732914228BF114633
:103E60001B68596300219963904238BF0246DA63A8
:103E70001964704710B5094A002340F2E734A042A4
:103E80001360074A1268536328BF20469063D363C8
:103E9000A14238BF0C46146410BD00BF940000203E
:103EA000E803002030EE601AB1EE042AB4EE421AA4
:103EB000F1EE10FA04DD9FED1E2A41EE020A0AE03F
:103EC000B9EE042AB4EE421AF1EE10FA03DA9FEDCD
:103ED000172A01EE020A9FED171A9FED173A40F2DA
:103EE000E73180EE812A80EE010A22EE032A20EEDD
:103EF000030ABDEEC22ABDEEC00A12EE100A10EE91
:103F0000102A884228BF084602EE100A0B48B8EE75
:103F1000422A8A4280ED0C2A38BF114600EE101A60
:103F2000B8EE400A80ED010A704700BF9A9999BE29
:103F30009A99993E0000C84200C07944F8000020D8
:103F4000FEE700EE100AB8EE400A204684ED0B0AA8
:103F500084ED000A00F092BA0123CDE90059CDF8B2
:103F60000880ADF8320020463847B8EEC00A80EE2F
:103F7000080A7047CDE90A11CDE90711CDE9001112
:103F8000C0E9021201228161C0E900310161099298
:103F9000CDE90521CDE903217047C0E90043C0E91F
:103FA0000211C0E90412C0E90611FEF779BE00EE65
:103FB000100AB8EE400A20EE010A10EE100A02F0D4
:103FC00075BED3F8000400F00F007047002084F89D
:103FD0003400012084F83500704784F8460084F8E6
:103FE0003E0084F83F0084F8400084F8410084F8E3
:103FF000420084F8430084F8440084F84500704788
:10400000206850E8050F216820F0400041E80502D3
:10401000002A70472246334602F050BC01910199B4
:104020000196016841F00401016070473860FDF7B6
:1040300075BD002084F834007047002020212063E3
:1040400084F83D1084F83E00206C40F0200070475A
:10405000242084F841002068C16821F40051C16027
:10406000204600F015BE2068016921F490410161ED
:10407000416970470220002984F83E0084F83F001F
:1040800084F8420084F8430070472068016841F4D6
:1040900000710160704741E80302002A704701681F
:1040A00051E8051F026821F0010142E80513002BC9
:1040B000704784F8420084F843007047016851E873
:1040C000031F026821F0100142E80313002B704720
:1040D0002068616A026842F4007202600069087038
:1040E000608D01386085616A20684A1C6262228D99
:1040F000013A2285006948707047206C40F020002A
:104100002064704784F83E0084F8420070470446FB
:1041100090F841007047CDF80090FFF767B920464E
:1041200041464A46FFF7C3B9216851E8031F226898
:10413000704721466423FEF7E8BF2168236801F039
:104140003F0221685B02C1F388117047044690F872
:1041500034000128704700202021206384F83D109E
:1041600084F83E00704784F8460084F83E0084F8E6
:104170003F007047C16841F40051C1600020202118
:10418000606484F8411084F84210606370470168ED
:1041900041F0010101607047204600F0ECBC1A4379
:1041A00042EA0121826822F47F421143704720686D
:1041B00040694006704784F83D00002010BD21682A
:1041C0000A6822F480620A607047816801F0070182
:1041D00006297047002084F83C00204670473A4684
:1041E000234602F0B5B900210160FDF797BC0168D4
:1041F00021F0010101607047204639460022434604
:10420000CDF80090FFF7F2B8206850E8030F21685E
:1042100020F0100041E80302002A7047016821F0F5
:1042200001010160704790F83E6090F83F5090F8AF
:104230004230044690F84320012004297047164676
:104240000F460446FDF76ABC00212022216384F852
:104250003D2084F83E1084F83C10216C70472068A3
:104260000021012200F02EBB026822F4806202606D
:104270007047012200F026BB94F83C0001287047EB
:1042800001220DF1280884F83C20226898E80301F7
:104290001368DB07704782B22046314664233847F3
:1042A000306C40F080503064306C00F080507047CB
:1042B000608D01386085606A2168421C208D6262D1
:1042C000013820854B695B0770470220211D84F867
:1042D0003D00206800F088BA90F83C200446022097
:1042E000012A704784F83F0084F843007047608DCE
:1042F000013860857047044690F83D0000287047FB
:1043000094F83D002028704784F83D20402284F82E
:104310003E20002222646185606270472068B0F10F
:10432000804F70474A6902928A690292029A0A682B
:1043300042F400720A607047B06800F00C007047E9
:10434000202084F83D00002084F83C0084F83E00E2
:104350007047206850E8050F216820F0010041E80F
:104360000502002A7047002184F83C1070470020A5
:1043700084F83C0070470D4601204FEAB201032942
:1043800084F83C007047016841F480610160704727
:104390000446FDF7C3BBB0FBF3F001306FF31F30F1
:1043A00070474B68CA68194600F052BB0262B842B7
:1043B0008C68D1F800C045687047086820F48060B8
:1043C00008607047A1FB00010023FBF797BF606AFC
:1043D00001306062208D01382085704741F4004132
:1043E000416440F4806191427047206850E8050FB5
:1043F00021687047086840F0010008607047044673
:1044000090F83C00012870472068C0592840401BA4
:10441000B0FA80F04009864270472068616A0069FE
:1044200008707047618D013961857047002084F8FC
:1044300040002046FEF748BC2A460161204631462E
:10444000FFF75BB80097FEF7D1BF206850E8030F75
:1044500021687047019020684169019170470120EF
:10446000BDE8FE83204601221923704741F4807184
:10447000016020464FF001117047000090ED042AC2
:1044800090ED001A90ED013A90ED060A31EE431AD4
:10449000B5EE402A90ED083A80ED070AF1EE10FAE9
:1044A00080ED061A17D09FED1D4A31EE033AB4EEA7
:1044B000443AF1EE10FAC8BFB0EE443A9FED184A04
:1044C00080ED083AB4EE443AF1EE10FA03DA1449FA
:1044D000B0EE443A016290ED034A22EE032A90EDD9
:1044E000055A31EE400A90ED093A04EE012A05EE34
:1044F000002A80ED022AB4EE432AF1EE10FAC4BF7E
:1045000080ED023AB0EE432A90ED0A0AB4EE402A5A
:10451000F1EE10FAB8BF80ED020A704700007A444D
:1045200000007AC42DE9F84F4A48494C804E4A4F62
:104530004FF0000816300090B4F802901FFA88FB84
:10454000D94578D9A9EB0B0204EB0B05072A0DD34B
:10455000287BA5280AD1687B5A2807D1A87B032885
:104560005BD005285DD140F2015058E0207888B139
:1045700094F801A0524560D3BAF1050F1BD0BAF1EF
:10458000030F55D1287B02282AD0012823D0C0BB95
:10459000304922E0304639460A226423FEF7B5FD51
:1045A00005F10C01304601224FF47A734FF0010AF5
:1045B000FEF7ABFD3CE0A0680B2807D105F10C002D
:1045C00000F04CF8002094F801A002E001304FF018
:1045D000050AA0602CE01F48411D3046042213E06C
:1045E0001C480B224FF47A7300F10A013046FEF7A3
:1045F0008CFD15F80D0F0122303029462870304609
:1046000002E0304639460A224FF47A73FEF77DFD08
:104610004FF0000AA4F800A00AE040F20130208028
:1046200004E0009930460E22FEF7C4FD4FF0070A61
:104630000BEB0A0880E7002007E004F10C0000EB18
:104640000B01FCF7A1F8A9EB08006080BDE8F88F2A
:104650006001002054000020880000202DE9FF4167
:1046600004464078C10734D0277807F00105C7F326
:104670004001A9422DD0A1789FED171AC90141EA46
:104680005000FFF794FC8046B4F80300B5EE001A22
:104690000E46FFF78CFC41EC100B46EC118B0FA083
:1046A00010A2002D12A18DED001B8DED020B08BF95
:1046B00002460E48BB08FBF799FE1C49012808601A
:1046C00007DB82B21A48094904B0BDE8F041FEF7A1
:1046D00071BDBDE8FF8100BF0000803C66616C7366
:1046E0006500000074727565000000000C05002074
:1046F0007B227374617274223A25732C2271756166
:104700006C697479223A25642C22616E676C65228B
:104710003A252E32662C2264697374616E636522B9
:104720003A252E32667D0D0A0000000008050020A3
:104730007804002070477047FDF7C2BB70B594B095
:1047400007AC34212046FCF761F802A81421FCF7DD
:104750005DF800251E4802260195016841F0805150
:1047600001601C49006800F080500190019801959B
:1047700001200A900A6860F38F320A60086800F42A
:10478000404001900420CDE91266CDE90D65079601
:1047900011904FF4A870109010200F900B9001987A
:1047A0002046FDF70BFD08B172B6FEE74FF48050CE
:1047B00006950221CDE904500F20CDE9020602A89A
:1047C000FDF722FC08B172B6FEE714B070BD00BF61
:1047D00040380240007000400248016841F4700116
:1047E0000160704788ED00E070B52C4B026898427C
:1047F00034D0B0F1804F0BD0294CA04208D0294CC6
:10480000A04205D0914CA04202D0274CA04203D137
:104810004C6822F070022243B0F1804F22D0204C2D
:10482000A0421FD01F4CA0421CD01F4CA04219D048
:104830001E4CA04216D01E4CA04213D01D4CA042CC
:1048400010D0824CA0420DD01B4CA0420AD01B4C71
:10485000A04207D01A4CA04204D007E04C6822F0D6
:1048600070022243CC6822F4407222430D688E68A5
:104870004C699842C662856203D003F58063984212
:1048800001D109690163016841F00401016001215E
:10489000416122F080012143016070BD00000140B0
:1048A0000004004000080040000C004000180040D8
:1048B000001C004000200040004001400048014032
:1048C0000044014010B501F01F010123046A8B4030
:1048D00002FA01F124EA03030362026A114301624E
:1048E00010BD0000F0B5036A026A584E22F00102C2
:1048F00023F00203A6F5806702628C68D1F800C03D
:10490000456823438469B84218BFB04210D1CA68D1
:1049100023F00C0322F004021343B84218BFB04244
:1049200006D125F44072D1E905562A4342EA06052C
:1049300024F07302456042EA0C02826149684163D7
:104940000362F0BDF0B5036A026A404E22F0100225
:10495000A6F5806723F02003FFF728FDD0F818E0C4
:1049600018BFB04243EA041312D1CA686FF0400482
:1049700023F0C00304EA02121343B84218BFB04246
:1049800006D125F44062D1E905452C4342EA84056D
:104990002EF4E642456042EA0C2282614968816356
:1049A0000362F0BDF0B5036A026A284E22F48072F9
:1049B000A6F5806723F40073FFF7F8FCD0F81CE03D
:1049C00018BFB04243EA042312D1CA6840F2FF4440
:1049D00023F440631202A2431343B84218BFB0420B
:1049E00006D125F44052D1E905452C4342EA04158D
:1049F0002EF07302456042EA0C02C2614968C1634D
:104A00000362F0BDF0B5D0F820C0036A0F4A40F44D
:104A1000806723F480539742036245680C688B6873
:104A2000C66904D14A6925F4804545EA821526F411
:104A3000E642456042EA0422C261496801642CF4FE
:104A4000005141EA03310162F0BD00BF00040140A2
:104A500010B5036A046A24F001040462846924F036
:104A6000F00444EA0212826123F00A021143016257
:104A700010BD10B5036A046A24F01004046284694E
:104A800024F4704444EA0232826123F0A00242EA34
:104A90000111016210BD806B0021C185FDF7DBBFF4
:104AA00010B5846B2068416994F84120212A08D10F
:104AB00011F0800105D00020E084204600F07CF851
:104AC0002068406994F84210222906D110F0400075
:104AD00003D00020E085FFF75FFB606C40F0100022
:104AE00060642046BDE81040FDF7B5BF0168806BEB
:104AF0000968C90529D40021C185016851E8031F4F
:104B0000026821F4807142E80313002BF5D14DF8BF
:104B100008EDFFF7C4FA5DF808EBF8D1016851E839
:104B2000051F026821F0400142E80513002BF5D172
:104B3000202180F84210016B012906D14DF808EDC3
:104B4000FFF7BCFA5DF808EBF8D100214163016B77
:104B5000012918BFFEF770B9818DFDF77BBF806B0F
:104B600001214163016B012918BFFEF7CDBA818D88
:104B70004908FDF76FBF016851E8031F026821F47F
:104B8000907142E80313002BF5D14DF808EDFFF7C3
:104B900086FA5DF808EBF8D1016B012906D14DF8D2
:104BA00008EDFFF78BFA5DF808EBF8D1202180F8CB
:104BB0004210002101637047016851E8031F026839
:104BC00021F0C00142E80313002BF5D1202180F829
:104BD0004110704790F84210222920D18368024684
:104BE000B3F5805F08D152F8281F52F8183C002B0B
:104BF00045D003685B6809E052F8281F13B90369C0
:104C0000002BF6D003685B6803F07F030B7011681C
:104C100001311160C18D0139C185090400D070478F
:104C20000168CA6822F02002CA60CA6822F4807251
:104C3000CA604A6922F001024A61202180F84210CC
:104C400000214163026B012A18BFFEF7F5B881B05D
:104C500001634DF808EDFFF731FA5DF808EBF8D184
:104C600001680A68D20606D5002200920A680092FE
:104C7000496800910099818D01B0FDF7EBBE026893
:104C800052686FF35F2221F8022B8162C2E70000B5
:104C9000B0B50446006804F108030ECB056925F49D
:104CA000405519432A4349F20C650261C2686369A1
:104CB0001943E369AA4319431143C1604169A269D9
:104CC00021F4407111434161204940F480608842E1
:104CD00002D1FDF72FFA01E0FDF722FAE26919216E
:104CE00063681B4DA0FB0101B2F5004F16D15A00BD
:104CF000DB0FFBF703FB642105F18053B0FBF1F2FE
:104D000002FB0300322303EBC000B0FBF1F04FF4D1
:104D1000F87101EA400100F0070011E09A009B0FD2
:104D2000FBF7ECFA64213223B0FBF1F202FB050041
:104D300003EB0010B0FBF1F000F0F00100F00F0009
:104D400001EB0211084421688860B0BD00140140E5
:104D50009CFFFF0FF8B51346002504461E4E0A4679
:104D60001F4F456483858162222084F84200E06BF6
:104D70002168C0E91365194E0431C0E90F76FCF7CC
:104D8000C1FD30B110206064202084F84200012071
:104D9000F8BD009520680168009140680090009877
:104DA000206930B1FFF751FB40F48070FFF773F9D1
:104DB000F8D1FFF71AFB40F0010041E80502002A94
:104DC000F7D1FFF712FB40F0400041E80502002A4E
:104DD000F7D10020F8BD00BFA14A00085F4B0008D2
:104DE000ED4A00080023C285436481622221828546
:104DF00080F842100168006918B1C86840F48070FA
:104E0000C860486940F001004861C86840F020006F
:104E1000C860002070472DE9FC41044600681D462B
:104E200090460F465E1C01683940B94224D0002EDE
:104E3000F9D0FCF773FEA0EB08010320A94219D8B2
:104E4000C5B12068C1684907EDD5402FEBD0802F50
:104E5000E9D001680907E6D50025019501680191AF
:104E6000406801900198FFF797F9082084F84050B6
:104E700060640120BDE8FC810020BDE8FC810000E9
:104E8000BE48FDF7E9BD00BF2DE9F84FBC480168F9
:104E90000A68D2063CD50022DFF8809000920A68AA
:104EA0000092496800910099C06BB9F8042000682D
:104EB0004068C0F14007BD1ABCB2944238BF4035CB
:104EC000944223D008D9AF48B9F80260811809EBA1
:104ED0000600AAB20C3014E0DFF8A882B9F802602C
:104EE00009F10C0AC2F1400B08EB02010AEB0600C3
:104EF0001FFA8BF2FBF703FC16FA8BF041462246B1
:104F00005044FBF7FCFB7019A9F80200A9F80470E3
:104F10009B48BDE8F84FFDF79FBD00BF6001002032
:104F2000FEE700000000000088B0FCF7D3FFFFF7A9
:104F300005FCFEF7E7FDFEF7CDFDFEF79DFDFEF754
:104F40004BFEFEF72DFEFEF7ABFEFEF7C5FEFEF7AD
:104F5000D7FEFEF707FEFEF739FFFCF7ABF9FCF7CB
:104F60003DF9FEF759FB844C04F158084046FEF722
:104F7000B7FB4046FEF7E6FAFCF7D0FD7F4DA06098
:104F8000214602222846FDF745FF7D4E7D494022FD
:104F90003046FDF731FF30680E226423C16841F0CE
:104FA0001001C16078A12846FEF7AFF89FED6E0BA7
:104FB000DFF8E4B19FED799A04F1480951EC100B48
:104FC0009FED6B0BCDE9051051EC100BCDE90310F3
:104FD000FFF7A8FAFCF7A2FD8246A069AAEB000041
:104FE0000A28C0F088804846FCF700F9DBF800008A
:104FF000002840F0808094ED120AD4ED130AFEF7E9
:1050000051FF4046FEF7B0FCA068AAEB000000EE9E
:10501000100A4046B8EE400A80EE090AFEF7FCFC92
:1050200094ED0E0A94ED14AA94ED0F1A94ED15BAAE
:10503000C4F818A0C4F808A03BEE411A3AEE400AA2
:1050400030EE010A10EE100A01F030FE41EC100BB8
:1050500005460790A06E8B4684ED100B01F026FEEE
:10506000DDE9053201F02AFCDDE9033201F070FAD6
:1050700041EC180B4E46D4F82090B0EE480AF0EE02
:10508000680A00F079FC53EC102B2846594601F0D1
:1050900015FC0746484645468846B14601F006FEDF
:1050A00002460B4641463846A84601F0A9F901F0F0
:1050B00075F9B0EE480A676A2062F0EE680A00F0FF
:1050C000BFFC0798594653EC102BDFF8CCB084EDA9
:1050D0000EAA84ED0FBA01F0F1FB064638460D46E4
:1050E00001F0E4FD02460B463046294601F088F9FE
:1050F00001F054F96062E069AAEB0000B0F5FA6FC4
:10510000FFF466AFD4E9080501F0D0FD0646284655
:105110000F4601F0CBFD41EC100B214821A1324696
:105120003B468DED000BFBF761F9E06801280AD1E1
:105130001B4D2846FBF7C4FA82B2104829464FF4AB
:105140007A73FDF7E2FF4046C4F81CA0FEF70CFCA2
:10515000206901287FF43CAF4046FEF7A3FB4046A0
:10516000FEF7C2FA34E700BF182D4454FB21094072
:105170000000000000806640B0010020780400209C
:10518000C00400200C0600207374617274207472D5
:1051900079696E670A0000009400002000007A44DC
:1051A00024020020783A252E32662C793A252E32B8
:1051B000660000005FEA400C08BF91F0000F4FEA64
:1051C0008C234FEAC12243EA51514FEA1C5018BFC9
:1051D00000F5F0404FEA300018BF41F000415FEAAF
:1051E0006C5C00F02980BCF1FF3F08BF40F08040BC
:1051F0007047130C06BF12044FF0100C4FF0000C58
:10520000130E04BF12020CF1080C130F04BF12019D
:105210000CF1040C930F04BF92000CF1020CD30F9D
:1052200004BF52000CF1010C11464FF00002A0F136
:105230001F00A0EB0C00704711F0004F08BF704733
:1052400031F000413FF4D5AF0B0C06BF09044FF01D
:10525000100C4FF0000C0B0E04BF09020CF1080CEF
:105260000B0F04BF09010CF1040C8B0F04BF890064
:105270000CF1020CCB0F04BF49000CF1010CCCF176
:10528000200322FA03F341EA030102FA0CF2A0EB35
:105290000C0000F10100704723F07F4720F07F4CA5
:1052A00080EA030000F00040ACEB070303F57C53F9
:1052B00003F1FF032DE9804909B44FEA144324EABE
:1052C00003484FEA154B25EA0B4E0FF2042606EB76
:1052D00013273E7803FB0667C7F5000707FB06F6B2
:1052E0004FEAD64606F102064FEA543707FB066C32
:1052F000CCF1005C4FEA1C472CEA074C0CFB06F58E
:1053000007FB06F404EB15464FEA961649085FEAD8
:10531000320234BF00204FF000404FEAD13706FB85
:1053200007FC4FEA1C4C0CFB0BF7D21B03FB0CF7E2
:1053300061EB07010CFB0EF7B0EB074072EB174275
:105340000CFB08F734BFA2EB0742B2EB074261EB5C
:1053500017414FEA0C444FEA910706FB07FC4FEA5E
:105360001C4C0CFB0BF7B0EBC74072EB573203FB46
:105370000CF734BFA2EBC742B2EBC74261EB573127
:105380000CFB0EF7B0EBC70072EB57720CFB08F783
:1053900034BFA2EBC702B2EBC70261EB57714FEA11
:1053A000816141EA92114FEA826242EA90124FEA29
:1053B000806004EBCC04039F4FEAD13706FB07FC67
:1053C0004FEA1C4C0CFB0BF7D21B03FB0CF761EBF9
:1053D00007010CFB0EF7B0EB074072EB17420CFB1A
:1053E00008F734BFA2EB0742B2EB074261EB17416B
:1053F0004FEA8C5504EB9C244FEA910706FB07FC0F
:105400004FEA1C4C0CFB0BF7B0EBC74072EB57326A
:1054100003FB0CF734BFA2EBC742B2EBC74261EB10
:1054200057310CFB0EF7B0EBC70072EB57720CFB59
:1054300008F734BFA2EBC702B2EBC70261EB5771AA
:105440004FEA816141EA92114FEA826242EA901288
:105450004FEA806015EB4C2544F100044FEAD13748
:1054600006FB07FC4FEA1C4C0CFB0BF7D21B03FBA3
:105470000CF761EB07010CFB0EF7B0EB074072EB8A
:1054800017420CFB08F734BFA2EB0742B2EB07420E
:1054900061EB17414FEA813141EA92414FEA823292
:1054A00042EA90424FEA80304FEA0C7615EB1C1529
:1054B00044F1000448EA03434EEA0B484FF0000E63
:1054C000B2EB080C71EB030724BF624639464EEB82
:1054D0000E0E4FF0000B0018524149414BEB0B0BE5
:1054E000B2EB080C71EB03077BF1000B24BF6246A3
:1054F00039464EEB0E0E4FF0000B00185241494159
:105500004BEB0B0BB2EB080C71EB03077BF1000BC1
:1055100024BF624639464EEB0E0E51EA020718BF11
:1055200046F0010616EB0E7655F1000254F100012B
:1055300003D5BDE88901BDE80088BDE88901BDE863
:105540000048B619524141EB0101A3F10103704734
:1055500080807F7E7D7C7B7A7978777676757473B0
:10556000727171706F6E6E6D6C6C6B6A6A6968686F
:10557000676666656464636362616160605F5F5E05
:105580005E5D5D5C5C5B5B5A5A595958585757567B
:1055900056555555545453535252525151505050E0
:1055A0004F4F4F4E4E4D4D4D4C4C4C4B4B4B4A4A32
:1055B0004A49494948484847474747464646454576
:1055C00045444444444343434342424242414141AF
:1055D0009C46002B30D477002BD04FEA37071CB500
:1055E00003B44FF010004FF01001BAF1000F06D0D5
:1055F000BCF1000FDCBF40F0080040F008014FF0A4
:1056000000000FBCBDE810400BF1010BBBF1010F16
:1056100008BF5FEA170722BF12F1010211F1010171
:105620004FF0004143F1000300F0004043EA000066
:105630007047F9D35708D0E746EA06464FEA1646C0
:1056400013F1400F1FDD13F1200FDFBF16430A4691
:10565000002120335B42BED0C3F1200746EA064654
:105660004FEA164602FA07F746EA070622FA03F25D
:10567000C3F1200701FA07F742EA070221FA03F112
:105680004FF00003A7E746EA020646EA06464FEA5D
:10569000164646EA0106BCBF46EA0646360C4FF0FF
:1056A00000034FF000024FF0000194E72DE9804C19
:1056B00070B49A46934691E8380007C831EA400C26
:1056C00048BF34EA430C03D5FFF7E6FDFFF780FF40
:1056D000F0BCBDE8008C2DE9804C70B49A4693462E
:1056E00091E8380007C810F0804F08BF13F0804FD2
:1056F00003D100F005F8FFF76BFFF0BCBDE8008CAC
:1057000020F07F4723F07F4C80EA030000F0004048
:1057100007EB0C03A3F57C53A3F1FE0392F0000FFB
:1057200000F0B38095F0000F00F077802DE901497B
:105730004FEA114021EA00484FEA144624EA06479E
:1057400000FB06FC08FB06F607FB08F818EB06480A
:105750004CEB164C00FB07F718EB07484CEB1740D7
:105760004FEA124B22EA0B4E4FEA154625EA06474E
:105770000BFB06FC0EFB06F607FB0EFE1EEB064EB1
:105780004CEB164C0BFB07F71EEB074E4CEB174B85
:1057900018EB0B0840F1000018EB0E0B58EB00085B
:1057A00040F100008F1A4FF000014FF000063CBF9F
:1057B000C943661B14BFB5EB040C00213CBFC943B1
:1057C000F61B4FEA174427EA04454FEA1C472CEA28
:1057D000074C04FB076205FB07F70CFB05F616EB0D
:1057E000074642EB174204FB0CFC16EB0C4642EB5F
:1057F0001C421BEB060658EB020241414EEA8E0E9C
:1058000046EA9E0601D5BDE80189B619524141EB31
:105810000101A3F10103BDE801894FEA144524EA1F
:1058200005464FEA114721EA074C05FB07F406FB42
:1058300007F70CFB06F111EB074144EB174405FB9E
:105840000CFC11EB0C4144EB1C444FEA124722EADA
:10585000074C05FB07F206FB07F70CFB06F616EBF9
:10586000074642EB174205FB0CFC16EB0C4642EBDD
:105870001C456A1854F1000148BF7047B6195241DF
:1058800041EB0101A3F10103704795F0000F37D000
:105890004FEA114221EA02464FEA144724EA074C34
:1058A00002FB07F106FB07F70CFB06F414EB0744B9
:1058B00041EB174102FB0CFC14EB0C4441EB1C4187
:1058C0004FEA154725EA074C02FB07F506FB07F7E9
:1058D0000CFB06F616EB074645EB174502FB0CFCE6
:1058E00016EB0C4645EB1C42121951F1000148BF62
:1058F0007047B619524141EB0101A3F10103704712
:105900004FEA144524EA05464FEA114721EA074CBD
:1059100005FB07F106FB07F70CFB06F212EB07424B
:1059200041EB174105FB0CFC12EB0C4251EB1C4107
:105930004FF0000648BF7047921841EB0101A3F1F8
:105940000103704703B401984100009850EAC12058
:1059500018BF04204A0D18BF40F0010040F2FF724A
:10596000B2EB515F08BF40F00200012808BF0520DC
:1059700002B070470000000010B52F499FED2C1BAE
:105980002DED020B84B0059820F000408842D8BF6E
:105990009DED040B2DDD2949884209D1049840B9B9
:1059A0004FF00100FAF761FF00F0A2FC06B010BD55
:1059B00005DB9DED040B00F08FFC06B010BD6846C2
:1059C0009DED040B00F0A0F810F0030004BF9DED66
:1059D000021B9DED000B0CD001280ED09DED021B8B
:1059E0009DED000B022817D0012000F0DDFB06B072
:1059F00010BD00F0A5FA06B010BD9DED021B9DED97
:105A0000000B012000F0D0FB51EC100B00F0BAFCB1
:105A100006B041EC100B10BD00F092FA51EC100BE7
:105A200000F0B0FC06B041EC100B10BD000000000F
:105A30000000000000000000FB21E93F0000F07FB3
:105A400010B52F499FED2C1B2DED020B84B005984E
:105A500020F000408842DCBF00209DED040B32DDC9
:105A60002849884209D1049840B94FF00100FAF75B
:105A7000FCFE00F03DFC06B010BD05DB9DED040B07
:105A800000F02AFC06B010BD68469DED040B00F046
:105A90003BF810F0030011D0012818D09DED021B37
:105AA0009DED000B02281AD000F04AFA51EC100BC1
:105AB00000F068FC06B041EC100B10BD9DED021B20
:105AC0009DED000B012000F06FFB06B010BD9DEDB9
:105AD000021B9DED000B00F033FA06B010BD012053
